{
  "contractName": "CarNet",
  "abi": [
    {
      "constant": false,
      "inputs": [
        {
          "name": "carHash",
          "type": "bytes32"
        },
        {
          "name": "signature",
          "type": "bytes"
        }
      ],
      "name": "addCar",
      "outputs": [
        {
          "name": "",
          "type": "bool"
        }
      ],
      "payable": false,
      "stateMutability": "nonpayable",
      "type": "function"
    },
    {
      "constant": false,
      "inputs": [
        {
          "name": "carHash",
          "type": "bytes32"
        },
        {
          "name": "ownerAddress",
          "type": "address"
        },
        {
          "name": "signature",
          "type": "bytes"
        }
      ],
      "name": "rentCar",
      "outputs": [
        {
          "name": "",
          "type": "bool"
        }
      ],
      "payable": false,
      "stateMutability": "nonpayable",
      "type": "function"
    },
    {
      "constant": false,
      "inputs": [
        {
          "name": "carHash",
          "type": "bytes32"
        },
        {
          "name": "ownerAddress",
          "type": "address"
        }
      ],
      "name": "returnCar",
      "outputs": [
        {
          "name": "",
          "type": "bool"
        }
      ],
      "payable": false,
      "stateMutability": "nonpayable",
      "type": "function"
    }
  ],
  "bytecode": "0x608060405234801561001057600080fd5b50610cce806100206000396000f3fe608060405234801561001057600080fd5b50600436106100415760003560e01c806311d0898014610046578063bbeae388146100ac578063d2d7f7ba14610189575b600080fd5b6100926004803603604081101561005c57600080fd5b8101908080359060200190929190803573ffffffffffffffffffffffffffffffffffffffff169060200190929190505050610286565b604051808215151515815260200191505060405180910390f35b61016f600480360360408110156100c257600080fd5b8101908080359060200190929190803590602001906401000000008111156100e957600080fd5b8201836020820111156100fb57600080fd5b8035906020019184600183028401116401000000008311171561011d57600080fd5b91908080601f016020809104026020016040519081016040528093929190818152602001838380828437600081840152601f19601f8201169050808301925050505050505091929192905050506105f5565b604051808215151515815260200191505060405180910390f35b61026c6004803603606081101561019f57600080fd5b8101908080359060200190929190803573ffffffffffffffffffffffffffffffffffffffff169060200190929190803590602001906401000000008111156101e657600080fd5b8201836020820111156101f857600080fd5b8035906020019184600183028401116401000000008311171561021a57600080fd5b91908080601f016020809104026020016040519081016040528093929190818152602001838380828437600081840152601f19601f82011690508083019250505050505050919291929050505061071f565b604051808215151515815260200191505060405180910390f35b6000806103a26102f28585604051602001808381526020018273ffffffffffffffffffffffffffffffffffffffff1673ffffffffffffffffffffffffffffffffffffffff1660601b815260140192505050604051602081830303815290604052805190602001206109ed565b6000808781526020019081526020016000208054600181600116156101000203166002900480601f0160208091040260200160405190810160405280929190818152602001828054600181600116156101000203166002900480156103985780601f1061036d57610100808354040283529160200191610398565b820191906000526020600020905b81548152906001019060200180831161037b57829003601f168201915b5050505050610a45565b90508273ffffffffffffffffffffffffffffffffffffffff168173ffffffffffffffffffffffffffffffffffffffff1614610428576040517f08c379a0000000000000000000000000000000000000000000000000000000008152600401808060200182810382526021815260200180610c826021913960400191505060405180910390fd5b60006105446104938633604051602001808381526020018273ffffffffffffffffffffffffffffffffffffffff1673ffffffffffffffffffffffffffffffffffffffff1660601b815260140192505050604051602081830303815290604052805190602001206109ed565b600160008881526020019081526020016000208054600181600116156101000203166002900480601f01602080910402602001604051908101604052809291908181526020018280546001816001161561010002031660029004801561053a5780601f1061050f5761010080835404028352916020019161053a565b820191906000526020600020905b81548152906001019060200180831161051d57829003601f168201915b5050505050610a45565b90503373ffffffffffffffffffffffffffffffffffffffff168173ffffffffffffffffffffffffffffffffffffffff16146105ca576040517f08c379a0000000000000000000000000000000000000000000000000000000008152600401808060200182810382526024815260200180610c5e6024913960400191505060405180910390fd5b6001600086815260200190815260200160002060006105e99190610b49565b60019250505092915050565b6000806106676106618533604051602001808381526020018273ffffffffffffffffffffffffffffffffffffffff1673ffffffffffffffffffffffffffffffffffffffff1660601b815260140192505050604051602081830303815290604052805190602001206109ed565b84610a45565b90503373ffffffffffffffffffffffffffffffffffffffff168173ffffffffffffffffffffffffffffffffffffffff16146106ed576040517f08c379a0000000000000000000000000000000000000000000000000000000008152600401808060200182810382526027815260200180610c376027913960400191505060405180910390fd5b826000808681526020019081526020016000209080519060200190610713929190610b91565b50600191505092915050565b60008061083b61078b8686604051602001808381526020018273ffffffffffffffffffffffffffffffffffffffff1673ffffffffffffffffffffffffffffffffffffffff1660601b815260140192505050604051602081830303815290604052805190602001206109ed565b6000808881526020019081526020016000208054600181600116156101000203166002900480601f0160208091040260200160405190810160405280929190818152602001828054600181600116156101000203166002900480156108315780601f1061080657610100808354040283529160200191610831565b820191906000526020600020905b81548152906001019060200180831161081457829003601f168201915b5050505050610a45565b90508373ffffffffffffffffffffffffffffffffffffffff168173ffffffffffffffffffffffffffffffffffffffff16146108c1576040517f08c379a0000000000000000000000000000000000000000000000000000000008152600401808060200182810382526021815260200180610c826021913960400191505060405180910390fd5b600061093261092c8733604051602001808381526020018273ffffffffffffffffffffffffffffffffffffffff1673ffffffffffffffffffffffffffffffffffffffff1660601b815260140192505050604051602081830303815290604052805190602001206109ed565b85610a45565b90503373ffffffffffffffffffffffffffffffffffffffff168173ffffffffffffffffffffffffffffffffffffffff16146109b8576040517f08c379a0000000000000000000000000000000000000000000000000000000008152600401808060200182810382526027815260200180610c376027913960400191505060405180910390fd5b836001600088815260200190815260200160002090805190602001906109df929190610b91565b506001925050509392505050565b60008160405160200180807f19457468657265756d205369676e6564204d6573736167653a0a333200000000815250601c01828152602001915050604051602081830303815290604052805190602001209050919050565b60006041825114610a595760009050610b43565b60008060006020850151925060408501519150606085015160001a90507f7fffffffffffffffffffffffffffffff5d576e7357a4501ddfe92f46681b20a08260001c1115610aad5760009350505050610b43565b601b8160ff1614158015610ac55750601c8160ff1614155b15610ad65760009350505050610b43565b60018682858560405160008152602001604052604051808581526020018460ff1660ff1681526020018381526020018281526020019450505050506020604051602081039080840390855afa158015610b33573d6000803e3d6000fd5b5050506020604051035193505050505b92915050565b50805460018160011615610100020316600290046000825580601f10610b6f5750610b8e565b601f016020900490600052602060002090810190610b8d9190610c11565b5b50565b828054600181600116156101000203166002900490600052602060002090601f016020900481019282601f10610bd257805160ff1916838001178555610c00565b82800160010185558215610c00579182015b82811115610bff578251825591602001919060010190610be4565b5b509050610c0d9190610c11565b5090565b610c3391905b80821115610c2f576000816000905550600101610c17565b5090565b9056fe556e617574686f7269736564207369676e657220686173206265656e206465637465637465642e43617220646f6573206e6f742062656c6f6e6720746f2074686520626f72726f7765722e43617220646f6573206e6f742062656c6f6e6720746f20746865206f776e65722ea165627a7a72305820cee2e54b46bb18f73549ebf1810f065232b15224e74995a1577d05da87bdad000029",
  "source": "pragma solidity ^0.5.0;\n\nimport \"./ECDSA.sol\";\n\n/// @title  The blockchain network for car owner validation\n/// @author Kelvin Yin\n/// @notice Use this contract for car ownership validation\n/// @dev    Each car will have unique hash which is then map to\n///         the address of the owner/borrower.\ncontract CarNet {\n\n  // Store the signature of the car owner\n  // [CarHash => OwnerSignature]\n  mapping(bytes32 => bytes) ownerSignature;\n\n  // Store the signature of the car borrower\n  // [CarHash => BorrowerSignature]\n  mapping(bytes32 => bytes) borrowerSignature;\n\n  /// @notice Add new block on when car is added\n  /// @dev    Make sure the message sender is the owner of the car\n  ///\n  /// @param  carHash   Unique hash code for the car\n  /// @param  signature Signature that was signed by the owner of the car\n  ///\n  /// @return  True if success, throw error otherwise\n  function addCar(bytes32 carHash, bytes memory signature) public returns (bool) {\n\n    // Get signer from signature\n    address signer = ECDSA.recover(\n      ECDSA.toEthSignedMessageHash(\n        keccak256(abi.encodePacked(carHash, msg.sender))\n      ), signature\n    );\n\n    // Verify if the sender is the owner\n    require(\n      signer == msg.sender,\n      \"Unauthorised signer has been dectected.\"\n    );\n\n    // Add owner signature\n    ownerSignature[carHash] = signature;\n\n    return true;\n\n  }\n\n  /// @notice Add new block when car is rented\n  /// @dev    Make sure the message sender is the borrower who borrow the car\n  ///\n  /// @param  carHash      Unique hash code for the car\n  /// @param  ownerAddress Address of car owner\n  /// @param  signature    Signature theat was signed by the borrower of the car\n  ///\n  /// @return True if success, throw error otherwise\n  function rentCar(bytes32 carHash, address ownerAddress, bytes memory signature) public returns (bool) {\n\n    // Get address from owner signature\n    address _ownerAddress = ECDSA.recover(\n      ECDSA.toEthSignedMessageHash(\n        keccak256(abi.encodePacked(carHash, ownerAddress))\n      ), ownerSignature[carHash]\n    );\n\n    // Verify the car belong to the right owner\n    require(\n      _ownerAddress == ownerAddress,\n      \"Car does not belong to the owner.\"\n    );\n\n    // Get signer from signature\n    address signer = ECDSA.recover(\n      ECDSA.toEthSignedMessageHash(\n        keccak256(abi.encodePacked(carHash, msg.sender))\n      ), signature\n    );\n\n    // Verify the borrower address\n    require(\n      signer == msg.sender,\n      \"Unauthorised signer has been dectected.\"\n    );\n\n    // Add borrower signature\n    borrowerSignature[carHash] = signature;\n\n    return true;\n\n  }\n\n  /// @notice Add new block when car is returned\n  /// @dev    Make sure the message sender is the borrower who borrow the car\n  ///\n  /// @param  carHash      Unique hash code for the car\n  /// @param  ownerAddress Address of car owner\n  ///\n  /// @return True if success, throw error otherwise\n  function returnCar(bytes32 carHash, address ownerAddress) public returns (bool) {\n\n    // Get address from owner signature\n    address _ownerAddress = ECDSA.recover(\n      ECDSA.toEthSignedMessageHash(\n        keccak256(abi.encodePacked(carHash, ownerAddress))\n      ), ownerSignature[carHash]\n    );\n\n    // Verify the car belong to the right owner\n    require(\n      _ownerAddress == ownerAddress,\n      \"Car does not belong to the owner.\"\n    );\n\n    // Get address from borrower signature\n    address _borrowerAddress = ECDSA.recover(\n      ECDSA.toEthSignedMessageHash(\n        keccak256(abi.encodePacked(carHash, msg.sender))\n      ), borrowerSignature[carHash]\n    );\n\n    // Verify the car returning belong to the right borrower\n    require(\n      _borrowerAddress == msg.sender,\n      \"Car does not belong to the borrower.\"\n    );\n\n    // Delete the borrower signature for the car\n    delete borrowerSignature[carHash];\n\n    return true;\n  }\n\n}\n",
  "sourcePath": "/Users/kelvin/dev/projects/NuCar/server/blockchain/contracts/CarNet.sol",
  "compiler": {
    "name": "solc",
    "version": "0.5.8+commit.23d335f2.Emscripten.clang"
  },
  "schemaVersion": "3.0.16",
  "updatedAt": "2019-10-19T03:26:07.418Z",
  "devdoc": {
    "author": "Kelvin Yin",
    "details": "Each car will have unique hash which is then map to         the address of the owner/borrower.",
    "methods": {
      "addCar(bytes32,bytes)": {
        "details": "Make sure the message sender is the owner of the car ",
        "params": {
          "carHash": "Unique hash code for the car",
          "signature": "Signature that was signed by the owner of the car "
        },
        "return": "True if success, throw error otherwise"
      },
      "rentCar(bytes32,address,bytes)": {
        "details": "Make sure the message sender is the borrower who borrow the car ",
        "params": {
          "carHash": "Unique hash code for the car",
          "ownerAddress": "Address of car owner",
          "signature": "Signature theat was signed by the borrower of the car "
        },
        "return": "True if success, throw error otherwise"
      },
      "returnCar(bytes32,address)": {
        "details": "Make sure the message sender is the borrower who borrow the car ",
        "params": {
          "carHash": "Unique hash code for the car",
          "ownerAddress": "Address of car owner "
        },
        "return": "True if success, throw error otherwise"
      }
    },
    "title": "The blockchain network for car owner validation"
  },
  "userdoc": {
    "methods": {
      "addCar(bytes32,bytes)": {
        "notice": "Add new block on when car is added"
      },
      "rentCar(bytes32,address,bytes)": {
        "notice": "Add new block when car is rented"
      },
      "returnCar(bytes32,address)": {
        "notice": "Add new block when car is returned"
      }
    },
    "notice": "Use this contract for car ownership validation"
  }
}